{
    "contractName": "HitList",
    "abi": [
        {
            "constant": false,
            "inputs": [],
            "name": "getBounties",
            "outputs": [
                {
                    "components": [
                        {
                            "name": "creator",
                            "type": "address"
                        },
                        {
                            "name": "targetName",
                            "type": "bytes32"
                        },
                        {
                            "name": "targetDescription",
                            "type": "bytes32"
                        },
                        {
                            "name": "reward",
                            "type": "uint256"
                        },
                        {
                            "name": "postedOn",
                            "type": "uint256"
                        },
                        {
                            "name": "fulfiller",
                            "type": "address"
                        },
                        {
                            "name": "fulfillerNickname",
                            "type": "bytes32"
                        },
                        {
                            "name": "fulfilled",
                            "type": "bool"
                        }
                    ],
                    "name": "",
                    "type": "tuple[]"
                }
            ],
            "payable": false,
            "stateMutability": "nonpayable",
            "type": "function"
        },
        {
            "constant": false,
            "inputs": [
                {
                    "name": "bountyId",
                    "type": "uint256"
                },
                {
                    "name": "releaseKey",
                    "type": "uint64"
                },
                {
                    "name": "nickname",
                    "type": "bytes32"
                }
            ],
            "name": "fulfillBounty",
            "outputs": [
                {
                    "name": "",
                    "type": "bool"
                }
            ],
            "payable": false,
            "stateMutability": "nonpayable",
            "type": "function"
        },
        {
            "constant": false,
            "inputs": [
                {
                    "name": "targetName",
                    "type": "bytes32"
                },
                {
                    "name": "targetDescription",
                    "type": "bytes32"
                },
                {
                    "name": "reward",
                    "type": "uint256"
                }
            ],
            "name": "createBounty",
            "outputs": [
                {
                    "name": "",
                    "type": "uint256"
                }
            ],
            "payable": true,
            "stateMutability": "payable",
            "type": "function"
        },
        {
            "inputs": [
                {
                    "name": "title",
                    "type": "bytes32"
                },
                {
                    "name": "fee",
                    "type": "uint256"
                }
            ],
            "payable": false,
            "stateMutability": "nonpayable",
            "type": "constructor"
        }
    ],
    "bytecode": "0x6060604052341561000f57600080fd5b6040516040806108fc8339810160405280805190602001909190805190602001909190505081600081600019169055508060028190555033600160006101000a81548173ffffffffffffffffffffffffffffffffffffffff021916908373ffffffffffffffffffffffffffffffffffffffff160217905550600060038190555030600860006101000a81548173ffffffffffffffffffffffffffffffffffffffff021916908373ffffffffffffffffffffffffffffffffffffffff160217905550505061081b806100e16000396000f300606060405260043610610057576000357c0100000000000000000000000000000000000000000000000000000000900463ffffffff1680630cf0ac1d1461005c578063362ec41d146100c1578063e74573491461011c575b600080fd5b341561006757600080fd5b61006f610162565b60405180806020018281038252838181518152602001915080516000925b818410156100b0578284906020019060200201518152602001926001019261008d565b925050509250505060405180910390f35b34156100cc57600080fd5b610102600480803590602001909190803567ffffffffffffffff16906020019091908035600019169060200190919050506102da565b604051808215151515815260200191505060405180910390f35b61014c60048080356000191690602001909190803560001916906020019091908035906020019091905050610549565b6040518082815260200191505060405180910390f35b61016a6107db565b6006805480602002602001604051908101604052809291908181526020016000905b828210156102d1578382906000526020600020906008020161010060405190810160405290816000820160009054906101000a900473ffffffffffffffffffffffffffffffffffffffff1673ffffffffffffffffffffffffffffffffffffffff1673ffffffffffffffffffffffffffffffffffffffff16815260200160018201546000191660001916815260200160028201546000191660001916815260200160038201548152602001600482015481526020016005820160009054906101000a900473ffffffffffffffffffffffffffffffffffffffff1673ffffffffffffffffffffffffffffffffffffffff1673ffffffffffffffffffffffffffffffffffffffff1681526020016006820154600019166000191681526020016007820160009054906101000a900460ff1615151515815250508152602001906001019061018c565b50505050905090565b6000808367ffffffffffffffff16600760008781526020019081526020016000205414151561030c5760009150610541565b60068581548110151561031b57fe5b906000526020600020906008020190503373ffffffffffffffffffffffffffffffffffffffff166108fc82600301549081150290604051600060405180830381858888f19350505050151561036f57600080fd5b338160050160006101000a81548173ffffffffffffffffffffffffffffffffffffffff021916908373ffffffffffffffffffffffffffffffffffffffff1602179055508281600601816000191690555060018160070160006101000a81548160ff021916908315150217905550806006868154811015156103ec57fe5b90600052602060002090600802016000820160009054906101000a900473ffffffffffffffffffffffffffffffffffffffff168160000160006101000a81548173ffffffffffffffffffffffffffffffffffffffff021916908373ffffffffffffffffffffffffffffffffffffffff160217905550600182015481600101906000191690556002820154816002019060001916905560038201548160030155600482015481600401556005820160009054906101000a900473ffffffffffffffffffffffffffffffffffffffff168160050160006101000a81548173ffffffffffffffffffffffffffffffffffffffff021916908373ffffffffffffffffffffffffffffffffffffffff160217905550600682015481600601906000191690556007820160009054906101000a900460ff168160070160006101000a81548160ff021916908315150217905550905050600191505b509392505050565b60008060006005600081548092919060010191905055915060025484013411151561057357600080fd5b600860009054906101000a900473ffffffffffffffffffffffffffffffffffffffff1673ffffffffffffffffffffffffffffffffffffffff1663b863bd3760066000604051602001526040518263ffffffff167c010000000000000000000000000000000000000000000000000000000002815260040180828152602001915050602060405180830381600087803b151561060d57600080fd5b6102c65a03f1151561061e57600080fd5b505050604051805190509050610100604051908101604052803373ffffffffffffffffffffffffffffffffffffffff1681526020018760001916815260200186600019168152602001858152602001428152602001600073ffffffffffffffffffffffffffffffffffffffff1681526020016000600102600019168152602001600015158152506006838154811015156106b457fe5b906000526020600020906008020160008201518160000160006101000a81548173ffffffffffffffffffffffffffffffffffffffff021916908373ffffffffffffffffffffffffffffffffffffffff1602179055506020820151816001019060001916905560408201518160020190600019169055606082015181600301556080820151816004015560a08201518160050160006101000a81548173ffffffffffffffffffffffffffffffffffffffff021916908373ffffffffffffffffffffffffffffffffffffffff16021790555060c0820151816006019060001916905560e08201518160070160006101000a81548160ff02191690831515021790555090505080600760008481526020019081526020016000208190555080925050509392505050565b6020604051908101604052806000815250905600a165627a7a7230582027725550125e49704098e125cdff8909a142d05018c7f40d1ee177eb3aa9f79c0029",
    "source": "pragma solidity ^0.4.18;\n\nimport \"eth-random/contracts/Random.sol\";\nimport \"./Structs.sol\";\n\ncontract HitList {\n\n    bytes32 private listTitle;\n    address private listOwner;\n\n    // All Monetary units are in wei\n    uint private listFee; // This is what we charge to create a bounty on our list\n    uint private escrow; // This is where funds are held upon completion of bounties\n    uint private revenue; // This is what we calculate so far as the money we have made from the HitList platform. TODO: can be a contract all its own with an address\n\n    // Bounties\n    uint private numBounties;\n    Structs.Bounty[] private  bounties;\n    mapping(uint => uint) private bountyReleaseKeys;\n\n    //Random number generator\n    Random private random;\n\n    //    Creates a HitList with a given title that collects and sends a certain percentage of all bounty fulfillments to the list owner's address. Kaching!.\n    function HitList(bytes32 title, uint fee) public {\n        listTitle = title;\n        listFee = fee;\n        listOwner = msg.sender;\n\n\n        escrow = 0;\n\n        random = Random(this);\n    }\n\n    //Anyone can create a bounty\n    function createBounty(bytes32 targetName, bytes32 targetDescription, uint reward) public payable returns (uint){\n\n        uint bountyId = numBounties++;\n\n        //TODO: collect reward money (for escrow) AND fee (for revenue)\n        //Payment value must be large enough to cover reward and listFee\n        require(msg.value > reward + listFee);\n//        msg.sender.transfer(reward);\n\n        uint releaseKey = random.random(6);\n        bounties[bountyId] = Structs.Bounty(msg.sender, targetName, targetDescription, reward, now, 0, 0, false);\n        bountyReleaseKeys[bountyId] = releaseKey;\n\n        return releaseKey;\n    }\n\n    //Get all bounties\n    //FUTURE: Implement pager\n    function getBounties() public returns (Structs.Bounty[]){\n\n        return bounties;\n    }\n\n    // Release a bounty's ethPrice to the sender of this mesage, if they have the right key.\n    function fulfillBounty(uint bountyId, uint64 releaseKey, bytes32 nickname) public returns (bool){\n\n        if (bountyReleaseKeys[bountyId] != releaseKey) {\n            return false;\n        }\n\n        //It's the right key so Release funds to sender\n        Structs.Bounty storage bounty = bounties[bountyId];\n\n        //Send money to bounty hunter\n        msg.sender.transfer(bounty.reward);\n\n        bounty.fulfiller = msg.sender;\n        bounty.fulfillerNickname = nickname;\n        bounty.fulfilled = true;\n        bounties[bountyId] = bounty;\n        return true;\n    }\n\n\n}\n",
    "sourcePath": "/projects/blockchain/bountyeth/contracts/HitList.sol",
    "compiler": {
        "name": "solc",
        "version": "0.4.18+commit.9cf6e910.Emscripten.clang"
    },
    "schemaVersion": "1.0.1",
    "updatedAt": "2018-01-09T06:41:55.249Z"
}