{
    "contractName": "HitList",
    "abi": [
        {
            "constant": true,
            "inputs": [],
            "name": "getBounties",
            "outputs": [
                {
                    "components": [
                        {
                            "name": "creator",
                            "type": "address"
                        },
                        {
                            "name": "targetName",
                            "type": "bytes32"
                        },
                        {
                            "name": "targetDescription",
                            "type": "bytes32"
                        },
                        {
                            "name": "reward",
                            "type": "uint256"
                        },
                        {
                            "name": "postedTimestamp",
                            "type": "uint256"
                        },
                        {
                            "name": "fulfiller",
                            "type": "address"
                        },
                        {
                            "name": "fulfillerNickname",
                            "type": "bytes32"
                        },
                        {
                            "name": "fulfilled",
                            "type": "bool"
                        }
                    ],
                    "name": "",
                    "type": "tuple[]"
                }
            ],
            "payable": false,
            "stateMutability": "view",
            "type": "function"
        },
        {
            "constant": true,
            "inputs": [
                {
                    "name": "bountyId",
                    "type": "uint256"
                }
            ],
            "name": "getBountyTargetName",
            "outputs": [
                {
                    "name": "",
                    "type": "bytes32"
                }
            ],
            "payable": false,
            "stateMutability": "view",
            "type": "function"
        },
        {
            "constant": false,
            "inputs": [
                {
                    "name": "targetName",
                    "type": "bytes32"
                },
                {
                    "name": "targetDescription",
                    "type": "bytes32"
                },
                {
                    "name": "reward",
                    "type": "uint256"
                }
            ],
            "name": "createBounty",
            "outputs": [
                {
                    "name": "",
                    "type": "uint256"
                },
                {
                    "name": "",
                    "type": "bytes32"
                }
            ],
            "payable": false,
            "stateMutability": "nonpayable",
            "type": "function"
        },
        {
            "constant": false,
            "inputs": [
                {
                    "name": "bountyId",
                    "type": "uint256"
                },
                {
                    "name": "releaseKey",
                    "type": "bytes32"
                },
                {
                    "name": "nickname",
                    "type": "bytes32"
                }
            ],
            "name": "fulfillBounty",
            "outputs": [
                {
                    "name": "",
                    "type": "bool"
                }
            ],
            "payable": false,
            "stateMutability": "nonpayable",
            "type": "function"
        },
        {
            "constant": true,
            "inputs": [
                {
                    "name": "bountyId",
                    "type": "uint256"
                }
            ],
            "name": "getBounty",
            "outputs": [
                {
                    "name": "",
                    "type": "uint256"
                },
                {
                    "name": "",
                    "type": "bytes32"
                },
                {
                    "name": "",
                    "type": "bytes32"
                },
                {
                    "name": "",
                    "type": "uint256"
                },
                {
                    "name": "",
                    "type": "uint256"
                },
                {
                    "name": "",
                    "type": "bool"
                }
            ],
            "payable": false,
            "stateMutability": "view",
            "type": "function"
        }
    ],
    "bytecode": "0x6060604052341561000f57600080fd5b61096c8061001e6000396000f30060606040526004361061006d576000357c0100000000000000000000000000000000000000000000000000000000900463ffffffff1680630cf0ac1d146100725780632eea26a5146100d7578063e745734914610116578063e85b01ef14610176578063ee8c4bbf146101cb575b600080fd5b341561007d57600080fd5b610085610239565b60405180806020018281038252838181518152602001915080516000925b818410156100c657828490602001906020020151815260200192600101926100a3565b925050509250505060405180910390f35b34156100e257600080fd5b6100f860048080359060200190919050506103b1565b60405180826000191660001916815260200191505060405180910390f35b341561012157600080fd5b610151600480803560001916906020019091908035600019169060200190919080359060200190919050506103db565b6040518083815260200182600019166000191681526020019250505060405180910390f35b341561018157600080fd5b6101b1600480803590602001909190803560001916906020019091908035600019169060200190919050506105ee565b604051808215151515815260200191505060405180910390f35b34156101d657600080fd5b6101ec600480803590602001909190505061085b565b604051808781526020018660001916600019168152602001856000191660001916815260200184815260200183815260200182151515158152602001965050505050505060405180910390f35b61024161092c565b6006805480602002602001604051908101604052809291908181526020016000905b828210156103a8578382906000526020600020906008020161010060405190810160405290816000820160009054906101000a900473ffffffffffffffffffffffffffffffffffffffff1673ffffffffffffffffffffffffffffffffffffffff1673ffffffffffffffffffffffffffffffffffffffff16815260200160018201546000191660001916815260200160028201546000191660001916815260200160038201548152602001600482015481526020016005820160009054906101000a900473ffffffffffffffffffffffffffffffffffffffff1673ffffffffffffffffffffffffffffffffffffffff1673ffffffffffffffffffffffffffffffffffffffff1681526020016006820154600019166000191681526020016007820160009054906101000a900460ff16151515158152505081526020019060010190610263565b50505050905090565b60006006828154811015156103c257fe5b9060005260206000209060080201600101549050919050565b600080600080600560008154809291906001019190505591507f72656c656173655468654b72616b656e0000000000000000000000000000000090508060405180826000191660001916815260200191505060405180910390a0610100604051908101604052803373ffffffffffffffffffffffffffffffffffffffff1681526020018860001916815260200187600019168152602001868152602001428152602001600073ffffffffffffffffffffffffffffffffffffffff1681526020016000600102600019168152602001600015158152506006838154811015156104bf57fe5b906000526020600020906008020160008201518160000160006101000a81548173ffffffffffffffffffffffffffffffffffffffff021916908373ffffffffffffffffffffffffffffffffffffffff1602179055506020820151816001019060001916905560408201518160020190600019169055606082015181600301556080820151816004015560a08201518160050160006101000a81548173ffffffffffffffffffffffffffffffffffffffff021916908373ffffffffffffffffffffffffffffffffffffffff16021790555060c0820151816006019060001916905560e08201518160070160006101000a81548160ff021916908315150217905550905050806007600084815260200190815260200160002081600019169055508181935093505050935093915050565b600080836000191660076000878152602001908152602001600020546000191614151561061e5760009150610853565b60068581548110151561062d57fe5b906000526020600020906008020190503373ffffffffffffffffffffffffffffffffffffffff166108fc82600301549081150290604051600060405180830381858888f19350505050151561068157600080fd5b338160050160006101000a81548173ffffffffffffffffffffffffffffffffffffffff021916908373ffffffffffffffffffffffffffffffffffffffff1602179055508281600601816000191690555060018160070160006101000a81548160ff021916908315150217905550806006868154811015156106fe57fe5b90600052602060002090600802016000820160009054906101000a900473ffffffffffffffffffffffffffffffffffffffff168160000160006101000a81548173ffffffffffffffffffffffffffffffffffffffff021916908373ffffffffffffffffffffffffffffffffffffffff160217905550600182015481600101906000191690556002820154816002019060001916905560038201548160030155600482015481600401556005820160009054906101000a900473ffffffffffffffffffffffffffffffffffffffff168160050160006101000a81548173ffffffffffffffffffffffffffffffffffffffff021916908373ffffffffffffffffffffffffffffffffffffffff160217905550600682015481600601906000191690556007820160009054906101000a900460ff168160070160006101000a81548160ff021916908315150217905550905050600191505b509392505050565b6000806000806000808660068881548110151561087457fe5b90600052602060002090600802016001015460068981548110151561089557fe5b90600052602060002090600802016002015460068a8154811015156108b657fe5b90600052602060002090600802016003015460068b8154811015156108d757fe5b90600052602060002090600802016004015460068c8154811015156108f857fe5b906000526020600020906008020160070160009054906101000a900460ff1695509550955095509550955091939550919395565b6020604051908101604052806000815250905600a165627a7a723058204a76e264c801fa4916d9f874275493149c93d9cd9e4b6d167bad66d67b8ad5910029",
    "source": "pragma solidity ^0.4.18;\n\nimport \"eth-random/contracts/Random.sol\";\nimport \"./Structs.sol\";\n\ncontract HitList {\n\n    bytes32 private listTitle;\n    address private listOwner;\n\n    // All Monetary units are in wei\n    uint private listFee; // This is what we charge to create a bounty on our list\n    uint private escrow; // This is where funds are held upon completion of bounties\n    uint private revenue; // This is what we calculate so far as the money we have made from the HitList platform. TODO: can be a contract all its own with an address\n\n    // Bounties\n    uint private numBounties;\n    Structs.Bounty[] private  bounties;\n    mapping(uint => bytes32) private bountyReleaseKeys;\n\n    //Random number generator\n    Random private random;\n\n    //    Creates a HitList with a given title that collects and sends a certain percentage of all bounty fulfillments to the list owner's address. Kaching!.\n    //    function HitList(bytes32 title, uint fee) public {\n    //        listTitle = title;\n    //        listFee = fee;\n    //        listOwner = msg.sender;\n    //\n    //\n    //        escrow = 0;\n    //\n    //        random = Random(this);\n    //    }\n\n    //Anyone can create a bounty\n    function createBounty(bytes32 targetName, bytes32 targetDescription, uint reward) public returns (uint, bytes32){\n\n        uint bountyId = numBounties++;\n\n        //TODO: collect reward money (for escrow) AND fee (for revenue)\n        //Payment value must be large enough to cover reward and listFee\n        //        require(msg.value > reward + listFee);\n        //        msg.sender.transfer(reward);\n\n        bytes32 releaseKey = \"releaseTheKraken\";\n        //TODO: generate this\n        log0(releaseKey);\n        bounties[bountyId] = Structs.Bounty(msg.sender, targetName, targetDescription, reward, now, 0, 0, false);\n        bountyReleaseKeys[bountyId] = releaseKey;\n\n        return (bountyId, releaseKey);\n    }\n\n    //Get all bounties\n    //FUTURE: Implement pager\n    function getBounties() public view returns (Structs.Bounty[]){\n\n        return bounties;\n    }\n\n    function getBounty(uint bountyId) public view returns (uint, bytes32, bytes32, uint, uint, bool){\n\n        return (bountyId, bounties[bountyId].targetName, bounties[bountyId].targetDescription, bounties[bountyId].reward, bounties[bountyId].postedTimestamp, bounties[bountyId].fulfilled);\n    }\n\n    function getBountyTargetName(uint bountyId) public view returns (bytes32){\n\n        return bounties[bountyId].targetName;\n    }\n\n    // Release a bounty's ethPrice to the sender of this mesage, if they have the right key.\n    function fulfillBounty(uint bountyId, bytes32 releaseKey, bytes32 nickname) public returns (bool){\n\n        if (bountyReleaseKeys[bountyId] != releaseKey) {\n            return false;\n        }\n\n        //It's the right key so Release funds to sender\n        Structs.Bounty storage bounty = bounties[bountyId];\n\n        //Send money to bounty hunter\n        msg.sender.transfer(bounty.reward);\n\n        bounty.fulfiller = msg.sender;\n        bounty.fulfillerNickname = nickname;\n        bounty.fulfilled = true;\n        bounties[bountyId] = bounty;\n        return true;\n    }\n\n\n}\n",
    "sourcePath": "/projects/blockchain/bountyeth/contracts/HitList.sol",
    "compiler": {
        "name": "solc",
        "version": "0.4.18+commit.9cf6e910.Emscripten.clang"
    },
    "schemaVersion": "1.0.1",
    "updatedAt": "2018-01-09T19:35:37.473Z"
}