{
    "contractName": "HitList",
    "abi": [
        {
            "constant": true,
            "inputs": [],
            "name": "getBounties",
            "outputs": [
                {
                    "components": [
                        {
                            "name": "creator",
                            "type": "address"
                        },
                        {
                            "name": "targetName",
                            "type": "bytes32"
                        },
                        {
                            "name": "targetDescription",
                            "type": "bytes32"
                        },
                        {
                            "name": "reward",
                            "type": "uint256"
                        },
                        {
                            "name": "postedTimestamp",
                            "type": "uint256"
                        },
                        {
                            "name": "fulfiller",
                            "type": "address"
                        },
                        {
                            "name": "fulfillerNickname",
                            "type": "bytes32"
                        },
                        {
                            "name": "fulfilled",
                            "type": "bool"
                        }
                    ],
                    "name": "",
                    "type": "tuple[]"
                }
            ],
            "payable": false,
            "stateMutability": "view",
            "type": "function"
        },
        {
            "constant": true,
            "inputs": [
                {
                    "name": "bountyId",
                    "type": "uint256"
                }
            ],
            "name": "getBountyTargetName",
            "outputs": [
                {
                    "name": "",
                    "type": "bytes32"
                }
            ],
            "payable": false,
            "stateMutability": "view",
            "type": "function"
        },
        {
            "constant": false,
            "inputs": [
                {
                    "name": "bountyId",
                    "type": "uint256"
                },
                {
                    "name": "releaseKey",
                    "type": "uint64"
                },
                {
                    "name": "nickname",
                    "type": "bytes32"
                }
            ],
            "name": "fulfillBounty",
            "outputs": [
                {
                    "name": "",
                    "type": "bool"
                }
            ],
            "payable": false,
            "stateMutability": "nonpayable",
            "type": "function"
        },
        {
            "constant": false,
            "inputs": [
                {
                    "name": "targetName",
                    "type": "bytes32"
                },
                {
                    "name": "targetDescription",
                    "type": "bytes32"
                },
                {
                    "name": "reward",
                    "type": "uint256"
                }
            ],
            "name": "createBounty",
            "outputs": [
                {
                    "name": "",
                    "type": "uint256"
                },
                {
                    "name": "",
                    "type": "uint256"
                }
            ],
            "payable": true,
            "stateMutability": "payable",
            "type": "function"
        },
        {
            "constant": true,
            "inputs": [
                {
                    "name": "bountyId",
                    "type": "uint256"
                }
            ],
            "name": "getBounty",
            "outputs": [
                {
                    "name": "",
                    "type": "uint256"
                },
                {
                    "name": "",
                    "type": "bytes32"
                },
                {
                    "name": "",
                    "type": "bytes32"
                },
                {
                    "name": "",
                    "type": "uint256"
                },
                {
                    "name": "",
                    "type": "uint256"
                },
                {
                    "name": "",
                    "type": "bool"
                }
            ],
            "payable": false,
            "stateMutability": "view",
            "type": "function"
        },
        {
            "inputs": [
                {
                    "name": "title",
                    "type": "bytes32"
                },
                {
                    "name": "fee",
                    "type": "uint256"
                }
            ],
            "payable": false,
            "stateMutability": "nonpayable",
            "type": "constructor"
        }
    ],
    "bytecode": "0x6060604052341561000f57600080fd5b604051604080610ac68339810160405280805190602001909190805190602001909190505081600081600019169055508060028190555033600160006101000a81548173ffffffffffffffffffffffffffffffffffffffff021916908373ffffffffffffffffffffffffffffffffffffffff160217905550600060038190555030600860006101000a81548173ffffffffffffffffffffffffffffffffffffffff021916908373ffffffffffffffffffffffffffffffffffffffff16021790555050506109e5806100e16000396000f30060606040526004361061006d576000357c0100000000000000000000000000000000000000000000000000000000900463ffffffff1680630cf0ac1d146100725780632eea26a5146100d7578063362ec41d14610116578063e745734914610171578063ee8c4bbf146101be575b600080fd5b341561007d57600080fd5b61008561022c565b60405180806020018281038252838181518152602001915080516000925b818410156100c657828490602001906020020151815260200192600101926100a3565b925050509250505060405180910390f35b34156100e257600080fd5b6100f860048080359060200190919050506103a4565b60405180826000191660001916815260200191505060405180910390f35b341561012157600080fd5b610157600480803590602001909190803567ffffffffffffffff16906020019091908035600019169060200190919050506103ce565b604051808215151515815260200191505060405180910390f35b6101a16004808035600019169060200190919080356000191690602001909190803590602001909190505061063d565b604051808381526020018281526020019250505060405180910390f35b34156101c957600080fd5b6101df60048080359060200190919050506108d4565b604051808781526020018660001916600019168152602001856000191660001916815260200184815260200183815260200182151515158152602001965050505050505060405180910390f35b6102346109a5565b6006805480602002602001604051908101604052809291908181526020016000905b8282101561039b578382906000526020600020906008020161010060405190810160405290816000820160009054906101000a900473ffffffffffffffffffffffffffffffffffffffff1673ffffffffffffffffffffffffffffffffffffffff1673ffffffffffffffffffffffffffffffffffffffff16815260200160018201546000191660001916815260200160028201546000191660001916815260200160038201548152602001600482015481526020016005820160009054906101000a900473ffffffffffffffffffffffffffffffffffffffff1673ffffffffffffffffffffffffffffffffffffffff1673ffffffffffffffffffffffffffffffffffffffff1681526020016006820154600019166000191681526020016007820160009054906101000a900460ff16151515158152505081526020019060010190610256565b50505050905090565b60006006828154811015156103b557fe5b9060005260206000209060080201600101549050919050565b6000808367ffffffffffffffff1660076000878152602001908152602001600020541415156104005760009150610635565b60068581548110151561040f57fe5b906000526020600020906008020190503373ffffffffffffffffffffffffffffffffffffffff166108fc82600301549081150290604051600060405180830381858888f19350505050151561046357600080fd5b338160050160006101000a81548173ffffffffffffffffffffffffffffffffffffffff021916908373ffffffffffffffffffffffffffffffffffffffff1602179055508281600601816000191690555060018160070160006101000a81548160ff021916908315150217905550806006868154811015156104e057fe5b90600052602060002090600802016000820160009054906101000a900473ffffffffffffffffffffffffffffffffffffffff168160000160006101000a81548173ffffffffffffffffffffffffffffffffffffffff021916908373ffffffffffffffffffffffffffffffffffffffff160217905550600182015481600101906000191690556002820154816002019060001916905560038201548160030155600482015481600401556005820160009054906101000a900473ffffffffffffffffffffffffffffffffffffffff168160050160006101000a81548173ffffffffffffffffffffffffffffffffffffffff021916908373ffffffffffffffffffffffffffffffffffffffff160217905550600682015481600601906000191690556007820160009054906101000a900460ff168160070160006101000a81548160ff021916908315150217905550905050600191505b509392505050565b6000806000806005600081548092919060010191905055915060025485013411151561066857600080fd5b600860009054906101000a900473ffffffffffffffffffffffffffffffffffffffff1673ffffffffffffffffffffffffffffffffffffffff1663b863bd3760066000604051602001526040518263ffffffff167c010000000000000000000000000000000000000000000000000000000002815260040180828152602001915050602060405180830381600087803b151561070257600080fd5b6102c65a03f1151561071357600080fd5b505050604051805190509050610100604051908101604052803373ffffffffffffffffffffffffffffffffffffffff1681526020018860001916815260200187600019168152602001868152602001428152602001600073ffffffffffffffffffffffffffffffffffffffff1681526020016000600102600019168152602001600015158152506006838154811015156107a957fe5b906000526020600020906008020160008201518160000160006101000a81548173ffffffffffffffffffffffffffffffffffffffff021916908373ffffffffffffffffffffffffffffffffffffffff1602179055506020820151816001019060001916905560408201518160020190600019169055606082015181600301556080820151816004015560a08201518160050160006101000a81548173ffffffffffffffffffffffffffffffffffffffff021916908373ffffffffffffffffffffffffffffffffffffffff16021790555060c0820151816006019060001916905560e08201518160070160006101000a81548160ff0219169083151502179055509050508060076000848152602001908152602001600020819055508181935093505050935093915050565b600080600080600080866006888154811015156108ed57fe5b90600052602060002090600802016001015460068981548110151561090e57fe5b90600052602060002090600802016002015460068a81548110151561092f57fe5b90600052602060002090600802016003015460068b81548110151561095057fe5b90600052602060002090600802016004015460068c81548110151561097157fe5b906000526020600020906008020160070160009054906101000a900460ff1695509550955095509550955091939550919395565b6020604051908101604052806000815250905600a165627a7a7230582050e0026b082267cf2aaad63a0ef466c2ce8f461ec65d1b587c0f6e390c62eeb50029",
    "source": "pragma solidity ^0.4.18;\n\nimport \"eth-random/contracts/Random.sol\";\nimport \"./Structs.sol\";\n\ncontract HitList {\n\n    bytes32 private listTitle;\n    address private listOwner;\n\n    // All Monetary units are in wei\n    uint private listFee; // This is what we charge to create a bounty on our list\n    uint private escrow; // This is where funds are held upon completion of bounties\n    uint private revenue; // This is what we calculate so far as the money we have made from the HitList platform. TODO: can be a contract all its own with an address\n\n    // Bounties\n    uint private numBounties;\n    Structs.Bounty[] private  bounties;\n    mapping(uint => uint) private bountyReleaseKeys;\n\n    //Random number generator\n    Random private random;\n\n    //    Creates a HitList with a given title that collects and sends a certain percentage of all bounty fulfillments to the list owner's address. Kaching!.\n    function HitList(bytes32 title, uint fee) public {\n        listTitle = title;\n        listFee = fee;\n        listOwner = msg.sender;\n\n\n        escrow = 0;\n\n        random = Random(this);\n    }\n\n    //Anyone can create a bounty\n    function createBounty(bytes32 targetName, bytes32 targetDescription, uint reward) public payable returns (uint, uint){\n\n        uint bountyId = numBounties++;\n\n        //TODO: collect reward money (for escrow) AND fee (for revenue)\n        //Payment value must be large enough to cover reward and listFee\n        require(msg.value > reward + listFee);\n        //        msg.sender.transfer(reward);\n\n        uint releaseKey = random.random(6);\n        bounties[bountyId] = Structs.Bounty(msg.sender, targetName, targetDescription, reward, now, 0, 0, false);\n        bountyReleaseKeys[bountyId] = releaseKey;\n\n        return (bountyId, releaseKey);\n    }\n\n    //Get all bounties\n    //FUTURE: Implement pager\n    function getBounties() public view returns (Structs.Bounty[]){\n\n        return bounties;\n    }\n\n    function getBounty(uint bountyId) public view returns (uint, bytes32, bytes32, uint, uint, bool){\n\n        return (bountyId, bounties[bountyId].targetName, bounties[bountyId].targetDescription, bounties[bountyId].reward, bounties[bountyId].postedTimestamp, bounties[bountyId].fulfilled);\n    }\n\n    function getBountyTargetName(uint bountyId) public view returns (bytes32){\n\n        return bounties[bountyId].targetName;\n    }\n\n    // Release a bounty's ethPrice to the sender of this mesage, if they have the right key.\n    function fulfillBounty(uint bountyId, uint64 releaseKey, bytes32 nickname) public returns (bool){\n\n        if (bountyReleaseKeys[bountyId] != releaseKey) {\n            return false;\n        }\n\n        //It's the right key so Release funds to sender\n        Structs.Bounty storage bounty = bounties[bountyId];\n\n        //Send money to bounty hunter\n        msg.sender.transfer(bounty.reward);\n\n        bounty.fulfiller = msg.sender;\n        bounty.fulfillerNickname = nickname;\n        bounty.fulfilled = true;\n        bounties[bountyId] = bounty;\n        return true;\n    }\n\n\n}\n",
    "sourcePath": "/projects/blockchain/bountyeth/contracts/HitList.sol",
    "compiler": {
        "name": "solc",
        "version": "0.4.18+commit.9cf6e910.Emscripten.clang"
    },
    "schemaVersion": "1.0.1",
    "updatedAt": "2018-01-09T19:20:40.623Z"
}