{
    "contractName": "Random",
    "abi": [
        {
            "constant": false,
            "inputs": [],
            "name": "random16",
            "outputs": [
                {
                    "name": "",
                    "type": "uint16[16]"
                }
            ],
            "payable": false,
            "stateMutability": "nonpayable",
            "type": "function"
        },
        {
            "constant": false,
            "inputs": [
                {
                    "name": "upper",
                    "type": "uint256"
                }
            ],
            "name": "random",
            "outputs": [
                {
                    "name": "randomNumber",
                    "type": "uint256"
                }
            ],
            "payable": false,
            "stateMutability": "nonpayable",
            "type": "function"
        },
        {
            "constant": false,
            "inputs": [],
            "name": "maxRandom",
            "outputs": [
                {
                    "name": "randomNumber",
                    "type": "uint256"
                }
            ],
            "payable": false,
            "stateMutability": "nonpayable",
            "type": "function"
        }
    ],
    "bytecode": "0x606060405260008055341561001357600080fd5b610376806100226000396000f300606060405260043610610057576000357c0100000000000000000000000000000000000000000000000000000000900463ffffffff168063387b36c01461005c578063b863bd37146100ad578063e72f5f63146100e4575b600080fd5b341561006757600080fd5b61006f61010d565b6040518082601060200280838360005b8381101561009a57808201518184015260208101905061007f565b5050505090500191505060405180910390f35b34156100b857600080fd5b6100ce600480803590602001909190505061026e565b6040518082815260200191505060405180910390f35b34156100ef57600080fd5b6100f761028a565b6040518082815260200191505060405180910390f35b61011561031d565b60008061012061031d565b600080935061012d61028a565b9250610200604051908101604052808561ffff1661ffff1681526020018561ffff1661ffff1681526020018561ffff1661ffff1681526020018561ffff1661ffff1681526020018561ffff1661ffff1681526020018561ffff1661ffff1681526020018561ffff1661ffff1681526020018561ffff1661ffff1681526020018561ffff1661ffff1681526020018561ffff1661ffff1681526020018561ffff1661ffff1681526020018561ffff1661ffff1681526020018561ffff1661ffff1681526020018561ffff1661ffff1681526020018561ffff1661ffff1681526020018561ffff1661ffff168152509150600090505b601081101561026457610236836010836102ef565b828260108110151561024457fe5b602002019061ffff16908161ffff16815250508080600101915050610221565b8194505050505090565b60008161027961028a565b81151561028257fe5b069050919050565b600060014303406000546040518083600019166000191681526020018281526020019250505060405180910390204260405180836000191660001916815260200182815260200192505050604051809103902060019004600081905550600054905090565b600080600084840291508160018660020a039060020a029050818187169060020a9004925050509392505050565b610200604051908101604052806010905b600061ffff1681526020019060019003908161032e57905050905600a165627a7a7230582038f3e5e28033f322e430e2c36da4201f14584f361e9d0f526833912b8f21b48f0029",
    "source": "pragma solidity ^0.4.4;\n\ncontract Random {\n  uint256 _seed = 0;\n\n  // in practice the upper bound of the number returns is 2^bits - 1\n  function _bitSlice(uint256 n, uint256 bits, uint256 slot) internal constant returns(uint256) {\n      // TODO require for checking input range\n      uint256 offset = slot * bits;\n      // mask is made by shifting left an offset number of times\n      uint256 mask = uint256((2**bits) - 1) << offset;\n      // AND n with mask, and trim to max of 5 bits\n      return uint256((n & mask) >> offset);\n  }\n\n  function maxRandom() public returns (uint256 randomNumber) {\n    _seed = uint256(sha3(sha3(block.blockhash(block.number - 1), _seed), now));\n    return _seed;\n  }\n\n  // return a pseudo random number between lower and upper bounds\n  // given the number of previous blocks it should hash.\n  function random(uint256 upper) public returns (uint256 randomNumber) {\n    return maxRandom() % upper;\n  }\n\n  /// @dev get the 16 random uint16 integers from a single roll\n  function random16() public returns(uint16[16]) {\n      uint16 z = 0;\n      uint256 n = maxRandom();\n      uint16[16] memory arr = [z,z,z,z,z,z,z,z,z,z,z,z,z,z,z,z];\n      for(uint i = 0; i < 16; i++) {\n          arr[i] = uint16(_bitSlice(n, 16, i));\n      }\n      return arr;\n  }\n}\n",
    "sourcePath": "eth-random/contracts/Random.sol",
    "compiler": {
        "name": "solc",
        "version": "0.4.18+commit.9cf6e910.Emscripten.clang"
    },
    "schemaVersion": "1.0.1",
    "updatedAt": "2018-01-09T06:41:55.251Z"
}